:020000040800F2
:100000005804002025110008BD100008BF1000088A
:1000100000000000000000000000000000000000E0
:10002000000000000000000000000000C1100008F7
:100030000000000000000000C3100008C510000808
:100040007B0B0008E70D0008031100080F110008E2
:10005000411100084311000845110008471100082C
:10006000491100084B1100084D1100084F110008FC
:10007000511100085311000855110008CD10000857
:1000800057110008591100085B110008000000001A
:100090005D1100085F11000861110008631100087C
:1000A0006511000867110008691100086B1100084C
:1000B0006D1100086F11000871110008731100081C
:1000C000F0B583B00400B44D0127206838404DD00E
:1000D000E8680C210140082907D0E8680C2101409C
:1000E0000C290AD1E868C00307D5286880033DD5EC
:1000F000606800283AD10120FEBD6068390488425A
:1001000001D1286809E0A021C9028842286806D1E7
:10011000B904014329602868390401430AE0B14960
:100120000140296028683904084001900198286836
:10013000AD4901402960606800280BD000F042FB07
:1001400006002868800311D400F03CFB801B652862
:10015000F7D3CBE100F036FB06002868800305D515
:1001600000F030FB801B6528F7D3BFE120788007C3
:1001700019D5E8680C210140042907D0E8680C2152
:1001800001400C2935D1E868C00332D42868400703
:1001900002D5E0680128AED16868B0490140206905
:1001A0000002084368602078C00667D5E8680C2123
:1001B000014078D12868800502D5E06900289AD0EE
:1001C000606A6968E02212020A40824234D200F07A
:1001D00095FA00288FD16868A1490140606A0843F8
:1001E000686068680002000A216A090601436960C4
:1001F00033E0E068002810D02968092291430843C1
:10020000286000F0DFFA060028684007C4D400F038
:10021000D9FA801B0328F7D368E12868B84328601F
:1002200000F0D0FA060028684007BCD500F0CAFAF2
:10023000801B0328F7D359E16968894A0A401043B3
:10024000686068680002000A216A09060143696063
:10025000606A00F053FA0028BCD1606A400B401C71
:1002600001218140C803A349EA681206120F895C84
:10027000C840A1490860032000F08DFA20780007EB
:100280004FD560690028286D3DD03843286500F0BF
:1002900099FA0600286D800743D400F093FA801B7A
:1002A0000328F7D322E1E069002828681CD0A90DB3
:1002B0000143296000F086FA06002868800505D40D
:1002C00000F080FA801B0328F7D30FE168686449C7
:1002D0000140606A0843686068680002000A216A99
:1002E000090601436960C9E784490140296000F0BB
:1002F00069FA060028688005C0D500F063FA801B03
:100300000328F7D3F2E0B843286500F05BFA060053
:10031000286D800705D500F055FA801B0328F7D318
:10032000E4E02078400769D5002069460870380766
:10033000A96B014004D1A96B0843A86369460F70FB
:100340006F480068C00512D46D480068A90D0143CC
:100350006B48016000F036FA060069480068C00585
:1003600005D400F02FFA801B6528F6D3BEE0A16803
:10037000A80D81420AD0634800290FD0A022D200E4
:1003800091420BD1286D290D01432965286DA90DD6
:100390000143296509E000BF00100240296D574A5A
:1003A0000A402A65296D08402865A06800280CD0FD
:1003B00000F008FA0600286D800517D400F002FA54
:1003C000801BA9498842F6D390E000F0FBF90600B3
:1003D000286D80050AD500F0F5F9801BA2498842F6
:1003E000F6D383E0FFFFFEFFFFFFFBFF68460078C8
:1003F000002803D0A86B9D490140A963207880069E
:1004000030D59B48A1690029A96814D03943A96057
:10041000696B0F436F630168420C0A43026000F08E
:10042000D1F90600A86880071CD400F0CBF9801B26
:100430000328F7D35AE0B943A96001688D4A0A40FE
:10044000026000F0BFF90600A86880070AD500F036
:10045000B9F9801B0328F7D348E000BFFFE0FFFF96
:10046000FF1FFFFFA06A002842D0E9680C220A4063
:100470000C2A00D13FE68027BF047F490228286864
:1004800027D10140296000F09DF906002868384016
:1004900005D000F097F9801B0328F7D326E0E86821
:1004A00091490140E06A0843216B0143606B0843B6
:1004B000E860286879080143296000F083F90600A4
:1004C0002868384014D100F07DF9801B0328F7D349
:1004D0000CE00140296000F075F9060028683840FA
:1004E00006D000F06FF9801B0328F7D30320FEBD70
:1004F0000020FEBD2410000808000020FFFEFFFFC2
:1005000000700040FFFBFFFFF2B582B0040001273E
:10051000FF43012575480068284088420AD2734885
:100520000068384001437148016000682840029922
:10053000884274D16E4E2078800705D5F068F0218E
:100540008843A1680143F1602068284055D0606865
:10055000022802D13168890308E0032802D13168FA
:10056000890103E00128316802D1490702D456E02D
:10057000890554D5F168032291430843F06000F0E7
:1005800021F90090606802280CD1F0680C2101402C
:10059000082932D000F016F90099401A32498842F1
:1005A000F3D328E003280CD1F0680C2101400C297A
:1005B00023D000F007F90099401A2B498842F3D361
:1005C00019E001280CD1F0680C210140042914D055
:1005D00000F0F8F80099401A23498842F3D30AE062
:1005E000F0680C21014008D000F0ECF80099401AA6
:1005F0001D498842F4D30320FEBD02983B49096897
:10060000294088420DD23948006807400298384393
:1006100036490860086805400298854201D00120EB
:10062000FEBD2078400705D5F06832490140E068FA
:100630000843F0602078000706D5F0682E49014095
:100640002069C0000843F06000F018F84349F268E0
:100650001206120F895CC84041490860032000F06F
:100660009AF80020FEBD000089130000FFFFFFEF95
:1006700020000140FFDFFFFFFFFFFFFEF0B51C4D34
:10068000E968394A9308102654080C2008400428C9
:1006900004D0082809D00C2809D01DE0286806409D
:1006A00001D01800F0BD1000F0BD2000F0BD2F48B3
:1006B0008F023F0FC05D0902890F491CEF68FF03DD
:1006C00001D5604305E02C68264001D0584300E086
:1006D000504300F081F8F0BD686801210004400F2C
:1006E000401C8140C803F0BDFFFF02FF0020024014
:1006F00000100240FFF8FFFFFFC7FFFFF0B5002228
:100700000121184B1C68F025254018D1C024640134
:10071000184D0E07DF6A374002D02D68254008E0EB
:10072000DF6A3E43DE622D682540DE6A124F3740A5
:10073000DF62A54203D1E300984200D101220C48B8
:1007400003680124A34313430360006801409142FE
:1007500001D00120F0BD0020F0BD000024100008F1
:10076000080000200C1002400024F400341000089F
:100770000020024000700040FFFFFFEF80B51348EB
:10078000016802220A430260032000F004F800F02E
:100790007AF8002002BD10B504000D480068FA2167
:1007A000890000F019F800F093F8002221000020E1
:1007B000C04300F082F8002010BD06480168491CC3
:1007C0000160704703480068704700000020024045
:1007D00008000020500000200022030A8B420BD2A8
:1007E00003098B4219D243088B422ED2411A00D200
:1007F0000146524110467047FF2209023FD01206BF
:100800008B4205D3121209028B4201D31212090244
:1008100003098B4219D300E0090AC3098B4201D3B3
:10082000CB01C01A524183098B4201D38B01C01AFC
:10083000524143098B4201D34B01C01A5241030973
:100840008B4201D30B01C01A5241C3088B4201D322
:10085000CB00C01A524183088B4201D38B00C01ACF
:10086000524143088B4201D34B00C01A5241884287
:1008700000D3401A5241CFD201461046704708B506
:1008800000F042F808BD704710B58207D30EFF2470
:100890009C40E2438907090E9940030004D516489D
:1008A0001B071B0F083B00E014489B089B00C01867
:1008B00003681A401143016010BD80B5FFF7E4FFE3
:1008C00001BD0121C006C00E81400D480160704786
:1008D00010B5401E80214904884201D3012010BD7B
:1008E000084C606003210020C043FFF7CDFF0020CB
:1008F000A0600721216010BD1CED00E000E400E0D5
:1009000000E100E010E000E0704730B40121002277
:100910000368001D002B0BD00468001D0C4202D0A0
:100920004D466D1E64192260241D1B1FF0D0FAE78E
:1009300030BC704710B5040001D1012010BD352036
:10094000205C002804D134216054200000F016F906
:10095000022035216054211D206800F0D3F831E0D9
:1009600000680121C2680A43C26002681143016045
:10097000002070470400080006D0042908D0082988
:100980000AD00C290CD010E02068C268114B0AE094
:100990002068C268104B06E02068C2680F4B02E076
:1009A0002068C2680E4B1340C3600022206800F02C
:1009B000D9F82068016A064A0A4003D10168012279
:1009C00091430160012035342070002010BD0000EB
:1009D00011110000FFFDFFFFFFFBFFFFFFF7FFFF0F
:1009E000FFEFFFFFF8B5040020680025022601692B
:1009F000314015D0C168314012D00221C943016194
:100A0000012121758069800703D0200000F077F86C
:100A100005E0200000F072F8200000F071F8257564
:100A2000206804270169394016D0C168394013D0C5
:100A30000421C943016126758069C02189000140F4
:100A400003D0200000F05BF805E0200000F056F82D
:100A5000200000F055F8257520680826016931400E
:100A600014D0C168314011D00821C94301612775F4
:100A7000C069800703D0200000F041F805E02000A5
:100A800000F03CF8200000F03BF8257520681021AC
:100A900002690A4016D0C268114013D01021C94320
:100AA00001612675C069C0218900014003D0200082
:100AB00000F025F805E0200000F020F8200000F00C
:100AC0001FF8257520680169C90708D5C168C907DD
:100AD00005D50121C9430161200000F08BF8206891
:100AE000402102690A4008D0C268114005D0402167
:100AF000C9430161200000F004F8F1BD7047704760
:100B000070477047F0B50668124A134B134C8025A6
:100B1000ED05A84205D0A04203D0984201D09042F2
:100B20000AD17027BE4337004E683E43A84205D025
:100B3000A04203D0984201D0904203D1084A3240EB
:100B4000CE68164306608A68C26209688162012124
:100B50004161F0BD00140140000801400004004064
:100B6000FFFCFFFF10B5036A01248C40A34303621E
:100B7000036A8A401A43026210BDFEE780B5074847
:100B8000016801220A430260002203210F20FFF7BF
:100B900094FE0F20FFF795FE01BD00BF3810024004
:100BA00010B5FFF7EBFD00F036F8002000F0B2F8CA
:100BB0000021002000F0D4F84E4800684E49FFF7AD
:100BC0000BFE401E4D4CA0638021C90521606321AE
:100BD000E160606000202061A0602000FFF7AAFEB5
:100BE000002800D0FEE72000FFF7BAFE002800D062
:100BF000FEE7FEE780B500F047F80100A020C00541
:100C0000022901D1002202E0032903D1012220217F
:100C100000F0ABF901BD10B594B06846142100F0A6
:100C2000D3F905A8382100F0CFF910200590012054
:100C30000C90A02000020E9000240D940F9405A8A3
:100C4000FFF73EFA002800D0FEE70F200090019445
:100C500002940394049400216846FFF755FC002891
:100C600000D0FEE726480168802252050A43026050
:100C700024490A68C0235B0113430B600168224AC0
:100C80000A40026014B010BDF8B5802189011F48E8
:100C900000F065F90100002300201D4A5468641C1F
:100CA000022503261778002F05D0022F0CD007D37A
:100CB000032F15D0F2BD00291BD101211170F2BD07
:100CC00000290FD1157013E0002902D01370022003
:100CD000F2BD5460642C0CDB167053600320F2BD2F
:100CE000002901D01370F2BD5460332C01DB0320C6
:100CF0005360F2BD08000020102700000C00002007
:100D00003810024000700040FFFFFFEF0008005065
:100D10004800002030B587B00121002807D12B4AB8
:100D200013680B43136012680A400092009A00BFD8
:100D30002AA24300D55A0195029100210391032173
:100D40000491234980000C1801A9206800F04CF898
:100D500000222900206800F008F907B030BD00002B
:100D600070B586B00C00002808D10421174A13681A
:100D70000B4313601268114000910099060000BFF8
:100D800017A07100405A01900020039001210491A6
:100D90001049B2008D18002C04D1029001A92868D6
:100DA00000F022F8012C0FD10B48029001A928680D
:100DB00000F01AF80BA0845D00220F2160B2FFF74B
:100DC0007CFD60B2FFF77DFD06B070BD2C100240C7
:100DD000000000200400002000002110200000007E
:100DE000002000000700FEE7FFB5002327E00625EE
:100DF000B5403D43039E35605F4D2E68E5432E4070
:100E00004F68FF0300D526435B4F3E607E682E404F
:100E10004F68BF0300D52643574F7E60BE682E4003
:100E20004F68FF0200D52643534FBE60FE68354031
:100E30004E68B60201D52C432500FD605B1C0D6891
:100E40002C00DC4000D189E001249C4002942C401D
:100E5000F4D04D68022D01D0122D18D1DD08AD005F
:100E600045192E6A00965E07F60E6F463E71009F8A
:100E7000BC466E4637790F26BE406746B743BC4630
:100E80000F696E463679B740664637432F625E007B
:100E90000327B740FD4300954D68012D05D0022D75
:100EA00003D0112D01D0122D11D18768009D3D4036
:100EB000CF68B7402F4387604768029DAF43BC4669
:100EC0004F68FD06ED0F9D4067463D43456007684E
:100ED000009D3D400F79BF07BF0FB7402F4307600C
:100EE000C768009D3D408F68BC4637006646BE40DF
:100EF0002E43C6604D68ED00A0D5204D2D6801261B
:100F00002E431E4D2E601E4D9E08B600AD19039552
:100F10002F689D072E0F0F25B540AF43A025ED0587
:100F2000A84201D1002563E7164DA84201D1012551
:100F30005EE7154DA84201D1022559E7134DA8429D
:100F400001D1032554E7124DA84201D104254FE7F2
:100F5000104DA84200D04AE7052549E7FFBD0069CA
:100F6000084000D00120C0B27047002A01D0816142
:100F70007047816270470000000401403410024055
:100F8000080001400004005000080050000C005010
:100F900000100050001C0050130030B41400150065
:100FA000103902D310393CC0FCD2490700D30CC021
:100FB00000D504C0890002D30280801C002900D51E
:100FC000027030BC704700000022E5E70F4801685E
:100FD000820D0A430260C1680D4A0A40C26001687E
:100FE0000C4A0A40026081680122914381600168D5
:100FF000094A0A400260C168084A0A40C2600021EA
:101000000161802000050649086070470010024019
:101010000C40FF88F6FFF6FEFFFFFBFFFFFF02FF1D
:1010200008ED00E0000000000000000001020304E1
:1010300006070809030406080C10182030000000F9
:1010400030B401210268001D002A0FD00368C318C4
:10105000446808300C4202D04D466D1E64191D686C
:1010600025601B1D241D121FECD0F8E730BC704713
:1010700010B5074979441831064C7C44163404E015
:10108000081D0A68891888470100A142F8D110BDDF
:10109000080000002800000073F8FFFF480000006F
:1010A0000C0000200000000099FFFFFF0C00000072
:1010B000C400000000000020000000007047FEE7B0
:1010C0007047704780B5FFF778FB01BD80B50248D7
:1010D000FFF788FC01BD00000C00002000F00BF8B9
:1010E000002801D0FFF7C4FF0020C046C046FFF72C
:1010F00057FD00F002F80120704780B500F002F8BB
:1011000001BDFEE70746384600F002F8FBE7FEE7C0
:1011100080B5C046C046024A11001820ABBEFBE7AE
:10112000260002000148804701480047CD0F000813
:1011300035110008C046C046C046C046FFF7CEFF86
:10114000FEE7FEE7FEE7FEE7FEE7FEE7FEE7FEE777
:10115000FEE7FEE7FEE7FEE7FEE7FEE7FEE7FEE767
:10116000FEE7FEE7FEE7FEE7FEE7FEE7FEE7FEE757
:10117000FEE7FEE7000000500008005080841E00DB
:0400000508001135A9
:00000001FF
